:1000000080313A287F3467347E1480310B1F0928F1
:100010000A2838282100111E0E280F281A2820002F
:10002000111E132814281A2845088A0044080A00BB
:10003000803138282100911E1E281F282A282000E0
:10004000911E232824282A2843088A0042080A00EF
:10005000803138282100911C2E282F283828200094
:10006000911C3328342838288D3194258031382844
:100070007E10090080313C28803102208031EE0062
:10008000803103208031EF00EF3084002030850084
:100090008130FE000030FF008D3143258031FC01AE
:1000A00020308400003085003930FE000030FF0031
:1000B0008D3143258031A03084000030850022300E
:1000C000FE000030FF008D31432580317E1020007E
:1000D00080316A288731ED2780318F31C027803108
:1000E0008D311A2580318D316D2580318B170B179D
:1000F0008C31DC2480312230F1000730F2008D3168
:100100000D2580318D315C258031031020000D1CC0
:100110000314003003180130EC006C084906031981
:1001200092289328C1284908031997289828B828A5
:100130002100BB1BAA283B08031DA9283A08031D60
:10014000A9283908031DA928323038020318A92824
:10015000AA28B82820004C080319AF28B028B528D1
:100160000330E4006408D200C128D201D20AC128B9
:1001700000302100BB000030BA000030B900003070
:10018000B80020006C08E4006408C90003100D1CCE
:100190000314003003180130C900AB1BDD282B0805
:1001A000031DDE282A08031DDE282908031DDE287A
:1001B00001302802031CDD28DE28082920002B0836
:1001C000803AE4002F08803A6402031DF1282E08CB
:1001D0002A02031DF1282D082902031DF1282C08ED
:1001E00028020318F428F52808290030AF00003051
:1001F000AE000030AD000030AC000030AB0000308D
:10020000AA000030A9000030A8008D317F25803180
:100210002000A31B19292308031D1A292208031DE6
:100220001A292108031D1A2901302002031C19294B
:100230001A29382920002308803AE4002708803A48
:100240006402031D2D2926082202031D2D292508DD
:100250002102031D2D2924082002031830293129E9
:10026000382908308D31C12580318D317F2580318D
:100270008D3122258031003A03193F294029F22A85
:1002800000302000AB000030AA000030A90032305E
:10029000A8000030AF000030AE000030AD000030EC
:1002A000AC008E31D42680312000E4006408ED00DB
:1002B000C62A5108E4006408C60081306D06031D9B
:1002C000622963296629D101D10A862942306D0647
:1002D000031D6B296C2971290230E4006408D100E8
:1002E000862924306D06031D762977297C29043060
:1002F000E4006408D100862918306D06031D8129A9
:10030000822986290630E4006408D1006D08E400E3
:100310006408C800E82A6D08E4006408CF005108AA
:10032000E4006408C6000730E4006408D100E82A4D
:100330006D08E4006408CE005108E4006408C600BB
:100340000730E4006408D100E82AEF30860020304E
:1003500087006D08C03F5108E4006408C600033000
:10036000E4006408D100E82AF030860020308700DD
:100370006D0881005108E4006408C6000530E400FF
:100380006408D100EF308600203087004131010839
:10039000031DCB29CC29E82A0730E4006408D100EA
:1003A000E82AEF308600203087004131803001029A
:1003B0000318DB29DC29EF294708E400E501F130C7
:1003C000E6002030E70064086607E8006508673D3E
:1003D000E90068088600690887006D08810001301F
:1003E000E4006408C707EF30860020308700413101
:1003F00001084706031DFD29FE29E82AC701510807
:10040000E4006408C600CC296D08E4006408CD004F
:100410005108E4006408C6004D088038E400640810
:10042000CD00D1010030AB000030AA000030A9009F
:100430000030A800E82A48086D06031D202A212A5A
:10044000AF2A992A48086D060319272A282A2D2A37
:1004500005308D31C1258031AF2A8D317F25803126
:1004600002308D31C12580312000D001D00AAF2A61
:1004700048086D0603193D2A3E2A432A05308D316E
:10048000C1258031AF2A02308D31C1258031200055
:100490004E088038E4006408CE00AF2AEF308600B2
:1004A00020308700413180300102031C582A592A2C
:1004B0005E2A04308D31C1258031AF2A48086D068F
:1004C0000319632A642A692A05308D31C1258031D8
:1004D000AF2A02308D31C1258031EF3086002030C7
:1004E0008700EF3084002030850000088038C03F4E
:1004F000AF2AEF3086002030870041318030010282
:10050000031C832A842A892A04308D31C125803135
:10051000AF2A48086D0603198E2A8F2A942A0530BF
:100520008D31C1258031AF2A02308D31C125803116
:100530006D2A4608E400E5016508003A0319A12A7E
:10054000AF2A6408013A0319222A033A0319382A08
:10055000013A0319792A063A03194E2AAF2A2000D4
:100560005108E4006408C600D1010030AB0000303F
:10057000AA000030A9000030A8000030AF00003011
:10058000AE000030AD000030AC00E82A5108E400B5
:10059000E5016508003A0319CE2AE82A6408003A02
:1005A00003195929013A03198B29033A0319982988
:1005B000013A0319B429073A0319A529013A031985
:1005C000D129033A0319042A013A03191B2AE82AFC
:1005D00046080319EC2AED2AF22A48086D06E400C1
:1005E0006408C8002000CD1FF62AF72A1D2B0F2B08
:1005F0004C03031DFC2AFD2A052B8C31DC248031A1
:1006000003302000E4006408D2008D317F25803162
:1006100020004D087F39E4006408CD001D2B4D08F3
:100620007F39E400E5016508003A0319182B1D2BFA
:100630006408083A0319F82A1D2BCE1F202B212B02
:10064000592D372B4C080319262B272B2C2B063022
:100650008D31C1258031302B07308D31C12580315E
:1006600020004D087F39E4006408CE00592D4E0863
:100670007F39E400E5016508003A0319402B592D44
:100680006408033A0319222B592D0030A3000030CF
:10069000A2000030A1000030A000C72D35083306AD
:1006A000031D542B340832060319572B582B682B83
:1006B0000030A7000030A6000030A5000030A400E4
:1006C0000030A3000030A2000330A100E830A000F9
:1006D0003508B3003408B200462D01308F3157275A
:1006E000803101302000B4070030B53DC72D013006
:1006F000F1000030F2000230F3000030F40000306E
:10070000F500F600FF30F7000030F8008F312827A1
:10071000803172082000B5007108B400C72D013087
:100720008D31F3258031003A0319972B982BC72D73
:10073000F130F2002030F300EF30860020308700E7
:10074000413101082000E4006408F4008731AD273E
:100750008031003A031DAD2BAE2B712B20000D18FC
:10076000B22BB32BB42B712B03308D31C1258031CB
:100770008D317F258031C72D02308F315727803151
:10078000712B0430F1000030F2000530F30000302E
:10079000F4000330F5000030F600FF30F7000030C1
:1007A000F8008F312827803172082000B5007108C9
:1007B000B400C72D02308D31F3258031003A031982
:1007C000E22BE32B692DF130F4002030F500EF30FF
:1007D000860020308700413101082000E4006408D1
:1007E000F60087316827803101308D31C125803195
:1007F000B82B08308D31C1258031B82B3508003A2F
:100800000319032CC72D3408003A03196D2B013A44
:100810000319772B033A03198F2B013A0319BC2BC9
:10082000073A0319C12B013A0319DA2BFA3A0319D3
:10083000F92BC72D4C03031D1E2C1F2C282C033015
:10084000E4006408D20001308D31C1258031B82B1D
:1008500001308F3157278031712B01308D31F325D5
:100860008031003A0319352C362C692DF130F20015
:100870002030F300EF30860020308700413101083E
:100880002000E4006408F4008731AD278031003A8D
:10089000031D4B2C4C2C512C20000D18502C512C8E
:1008A000592C2000D201D20A01308D31C12580316E
:1008B000B82B03308D31C1258031B82B08308D31F4
:1008C000C1258031B82B3508003A0319682C692DF1
:1008D0003408003A03191A2C013A0319772B033A0A
:1008E00003192D2CFD3A03195E2C692D01308F312F
:1008F00057278031712B01308D31F3258031003A3B
:100900000319832C842CC72DF130F2002030F30022
:10091000EF30860020308700413101082000E400DC
:100920006408F4008731AD278031003A031D992C0B
:100930009A2C9F2C20000D189E2C9F2CAF2C200051
:10094000D20122000C1406308D31C12580312000E7
:10095000CC01CC0A09308D31C1258031712B033097
:100960008D31C1258031B82B0030A3000030A200AA
:100970002E30A100E030A000CD1FBF2CC02CD12C08
:100980007F304D05E40009306406031DC82CC92CD6
:10099000D12C8C31DC24803101302000B4070030B0
:1009A000B53D4D087F39E4006408CD00C72D8D3179
:1009B00013258031003A0319DE2CDF2C692D8C3190
:1009C000D92480312000E4006408CA0009308D3148
:1009D000C1258031712BCD1FEE2CEF2CD12C7F3017
:1009E0004D05E40009306406031DF72CF82CD12CCA
:1009F000C92C8D3113258031003A0319002D012DAA
:100A0000692D8C31D92480312000E4006408CB00AA
:100A100001308D31C125803120004A08E40064088E
:100A2000F4004B088E31892680318D315C25803170
:100A30002000D201D20A8D317F2580312000CB01E8
:100A4000CA01C72D08308D31C12580311B2D3508D5
:100A5000003A03192C2D692D3408003A0319762C1D
:100A6000013A0319772B033A03197B2C013A031936
:100A7000B42C073A0319D72C013A0319EB2C033A8B
:100A80000319F92CF93A0319222D692D4F08E400B6
:100A9000E5016508003A03194E2DC72D6408013A97
:100AA0000319FE2B033A0319632C013A0319272D6E
:100AB000C72D5008E400E5016508003A0319612DCF
:100AC000C72D6408003A0319452B013A03194E2B30
:100AD000C72DC72D22000C1406308D31C125803161
:100AE0002000CC01CC0A0230E4006408D2008C3132
:100AF000DC24803185288D3113258031003A03199B
:100B0000822D832D852821001C082000E400640824
:100B1000EA006A08E400E5016408DD006508DE001B
:100B200001308531E0258031003A0319982D992D47
:100B3000772D03302000E4006408D200772D8D313A
:100B400013258031003A0319A62DA72D85282100F1
:100B50001C082000E4006408EB006B08E400E501D9
:100B60006408DD006508DE0000308531E025803155
:100B7000003A0319BC2DBD2D772D07308D31C125CD
:100B800080312000CC01D20122000C10772D2000F2
:100B90005208E400E5016508003A0319D02D8528C4
:100BA0006408003A03198528013A03196A2D033AAB
:100BB00003197B2D013A03199F2D852880313A288E
:100BC0002000E30063080319E62DE72D542E6E087C
:100BD0006F020318EC2DED2D1B2E0A30F7000030AC
:100BE000F8006F086E02F100F201031CF2030930F5
:100BF000F3000030F4008E31482685317208FA0087
:100C00007108F9008631C226853120006F08770708
:100C1000DF0078080318780AE0005E08803AE100F7
:100C20006008803A6102031D172E5F085D020318F9
:100C30001A2E1B2E522E20006F086E020318212E32
:100C4000222EC02E0A30F7000030F8006E086F0226
:100C5000F100F201031CF2030930F3000030F4004C
:100C60008E31482685317208FA007108F900863104
:100C7000C226853120006F08DF0077085F02E000A0
:100C800078090318890AE1006108803AE2005E08E9
:100C9000803A6202031D4E2E5D086002031C512E35
:100CA000522EC02E0130C12E6F086E020318592E2D
:100CB0005A2E882E0A30F7000030F8006E086F02B6
:100CC000F100F201031CF2030930F3000030F400DC
:100CD0008E31482685317208FA007108F900863194
:100CE000C226853120006E087707DF0078080318D8
:100CF000780AE0005E08803AE1006008803A61020C
:100D0000031D842E5F085D020318872E882E522E45
:100D100020006E086F0203188E2E8F2EC02E0A3010
:100D2000F7000030F8006F086E02F100F201031CBA
:100D3000F2030930F3000030F4008E31482685318B
:100D40007208FA007108F9008631C2268531200048
:100D50006E08DF0077085F02E00078090318890A4F
:100D6000E1006108803AE2005E08803A6202031DF9
:100D7000BB2E5D086002031CBE2EBF2EC02E522E5D
:100D8000003008002000DA01F81FC72EC82ECF2E31
:100D9000F709F809F70A0319F80ADA01DA0AFA1F5B
:100DA000D22ED32EDC2EF909FA09F90A0319FA0A10
:100DB0000130FB007B08DA06DB01DC0177087804F0
:100DC0000319E32EE42E132FD901D90AF02E013096
:100DD000F735F80D890BE82E0130FB007B08D907A9
:100DE000F81FF32EF42EE72E0130DB35DC0D890BD6
:100DF000F52E78087A02031DFF2E77087902031C6E
:100E0000022F032F082F7708F9027808FA3B5B14AA
:100E10000130F836F70C890B092F0130D902031D78
:100E2000122F132FF42E5A080319172F182F1D2FC6
:100E3000DB09DC09DB0A0319DC0A5C08F8005B0843
:100E4000F70008002000AB1B332F2B08031D342FA5
:100E50002A08031D342F2908031D342F01302802CE
:100E6000031C332F342F3D2F01302000AC070030FE
:100E7000AD3D0030AE3D0030AF3D2000A31B4E2FF6
:100E80002308031D4F2F2208031D4F2F2108031D88
:100E90004F2F01302002031C4E2F4F2F582F0130AF
:100EA0002000A4070030A53D0030A63D0030A73D3E
:100EB0002000490803195D2F5E2F672F01302100A4
:100EC000B8070030B93D0030BA3D0030BB3D0800E6
:100ED00004308D313725873176060319702F712F35
:100EE000792F7608F7007708F10004308E312A2632
:100EF0008731F801F9019F2F780874078600790877
:100F0000753D87007808053E8D313725873101060C
:100F100003198B2F8C2F9B2F780874078600790874
:100F2000753D87000108F7007708F1007808053E55
:100F30008E312A2687310130F8070030F93D7908D3
:100F4000803AF70080307702031DA82F76087802D8
:100F5000031CAB2FAC2F7C2F0800F701F70A0430DD
:100F60008D3137258731F5007508F800780874064B
:100F70000319BB2FBC2FBE2FF701EB2FF901FA018C
:100F8000DE2F7908053E8D3137258731F50075084C
:100F9000F8007908720786007A08733D8700010817
:100FA000F5007508F600780876060319D82FD92FB2
:100FB000DA2FBC2F0130F9070030FA3D7A08803A69
:100FC000F50080307502031DE72F74087902031CB9
:100FD000EA2FEB2FC12F770808008D31AA25873122
:100FE0008D312B2587318C31E72487318D316D256B
:100FF00087318D311A2587318F31C027873108001D
:1019AE000800080021001C08080021009D140800F2
:1019BE008D31D9258C31080023001D121D1608000B
:1019CE00163021009700080023001E0C0139080074
:1019DE0072082000BD007108BC00080072082000CB
:1019EE00C1007108C000080072082000BF00710815
:1019FE00BE00080072082000C3007108C200080073
:101A0E0072082000C5007108C4000800720820008A
:101A1E00B9007108B8000800031021009D1C0314C2
:101A2E000030093D0800103021009E009B019C01F2
:101A3E0025309D00080020005408031D272D292D58
:101A4E0001302A2D003008007030210099009801D5
:101A5E002200960121001A1F352D362D312D08003A
:101A6E00F100710823009100151395131514000051
:101A7E0000002300130808006400800101310130CA
:101A8E00FE020030FF3B7F087E04031D442D003410
:101A9E002000380839040319552D562D5B2D3908B1
:101AAE008A0038080A008D31080000308D31372544
:101ABE008D31F20072082000EE0001308D31372595
:101ACE008D31F20072082000EF000800C7302000B0
:101ADE009B009A01911021009114D830F1000C3026
:101AEE00F2008D310D258D314D3020009C00080007
:101AFE0000302000A7000030A6000030A500003006
:101B0E00A4000030A3000030A2000030A10000307D
:101B1E00A000B401B501D0010800200091100130E1
:101B2E00B6070030B73D003037020A3003193602CF
:101B3E00031CA22DA32DA92D8D314F258D312000F3
:101B4E00B601B701080022008C018D01FE30210084
:101B5E008C00FF308D00E83023008D001E308C008D
:101B6E00013024008D008C012100951322009D016F
:101B7E009E0108002000D900DA01DB011830F900BF
:101B8E007908DA005908F9007908DB005A30F300B9
:101B9E000030F4000230F9007908F5008E31AD26E0
:101BAE008D31080023001908F0007C08A83E86003D
:101BBE008701700881000130F0007008FC070830C2
:101BCE007C02031CEB2DEC2DED2DFC010130F00001
:101BDE0070082000D4070800F200EF308600203095
:101BEE008700811FFB2DFC2D0B2EEF308600203041
:101BFE0087007F300105F10071087206031D082E63
:101C0E00092E0B2E01300C2E00300800F601F701C4
:101C1E001B2E7608710786007708723D87008101BA
:101C2E000130F6070030F73D7708803AF50074086A
:101C3E00803A7502031D252E73087602031C282E8A
:101C4E00292E102E0800F200720823009100710850
:101C5E00930095131513151500308B1B0130F300EF
:101C6E008B1355309600AA30960095149518402E79
:101C7E00412E3D2E1511730C031C8B1303188B175D
:101C8E000800F501F601711C4D2E4E2E522E7308D2
:101C9E00F5077408F63D0130F335F40D890B532E1C
:101CAE000130F236F10C890B582E71087204031DA7
:101CBE00612E622E4A2E7608F2007508F100080099
:101CCE0008302000560203186D2E6E2E862E5708F1
:101CDE00B03E86008701010823009A000130F00013
:101CEE0070082000D70708305702031C7F2E802E65
:101CFE00812ED7010130F0007008D607882E210002
:101D0E0011120800F60000308D3137258E3176061F
:101D1E000319922E932E9B2E7608F5007508F1006E
:101D2E0000308E312A268E3101308D3137258E319D
:101D3E0074060319A32EA42EAC2E7408F500750894
:101D4E00F10001308E312A268E310800F701F8019C
:101D5E00C62E8C31EB248E31003A0319B72EB82ED5
:101D6E00B02E7708730786007808743D8700010847
:101D7E008E31FE268E310130F7070030F83D78089F
:101D8E00803AF60080307602031DCF2E750877025A
:101D9E00031CD22ED32EB02E080020005408031997
:101DAE00D92EDA2ED42E5508A03E860087010108C2
:101DBE00F1007108D3005508A83E8600870101087E
:101DCE00F1007108F2000130F1007108D5070830FA
:101DDE005502031CF32EF42EF52ED501210091127F
:101DEE0001302000D4022100911672080800F20082
:101DFE00200056080319042F052FFF2E2100111A5B
:101E0E00092F0A2F0E2F720823009A00252F111268
:101E1E007208F10020005808B03E86008701710854
:101E2E0081000130F1007108D80708305802031CF8
:101E3E00212F222F232FD8010130D6022100111677
:101E4E0008002000CD1F2C2F2D2F562F3D2F74084C
:101E5E00F2007308F100562F7808F2007708F100AF
:101E6E00562F7608F2007508F100562F4D087F396F
:101E7E00F900FA017A08003A0319462F512F790812
:101E8E00023A03192E2F063A0319332F013A03197A
:101E9E00382F512F4D087F39F9007908CD000800F1
:101EAE002000D900EF30F1002030F2008130F30035
:101EBE000030F4008E310D268F3100302000DA0014
:101ECE000030DB000030DC004230F9007908DA0027
:101EDE005908F9007908DB00DC015B085A06F900A5
:101EEE007908DC005A30F3000030F4000330F900BA
:101EFE007908F5008E31AD268F312000CD01080016
:101F0E007C08A03E86008701810123001D1D902FB5
:101F1E00912F9C2F7C08A03E860087018114200003
:101F2E0041088A0040080A008F3123009D1CA02F13
:101F3E00A12FAC2F7C08A03E860087010115200042
:101F4E003F088A003E080A008F317C08A03E8600BA
:101F5E00870101080319B42FB52FBC2F20003D08AF
:101F6E008A003C080A008F31BF2F8D31D9258F3161
:101F7E000800210091128730F1000F30F2008D31F0
:101F8E0001258F31210011126730F1000E30F20061
:101F9E008D3107258F31083023009F0090309D0032
:101FAE0024309E0040309B0003309C00D730F1005F
:101FBE000C30F2008C31F5248F31E330F1000C300F
:101FCE00F2008C31FB248F31DF30F1000C30F20047
:101FDE008C31EF248F312000D301D801D701083086
:101FEE00F3007308D600FC01D501D401210091162F
:021FFE000800D9
:020000040001F9
:08000000FF3FFF3FFF3FFF3F00
:04000E00E43FFF1FAD
:00000001FF
