:1000000080313A287F3467347E1480310B1F0928F1
:100010000A2838282100111E0E280F281A2820002F
:10002000111E132814281A2845088A0044080A00BB
:10003000803138282100911E1E281F282A282000E0
:10004000911E232824282A2843088A0042080A00EF
:10005000803138282100911C2E282F283828200094
:10006000911C3328342838288D31AC25803138282C
:100070007E10090080313C28803102208031EE0062
:10008000803103208031EF00EF3084002030850084
:100090008130FE000030FF008D3148258031FC01A9
:1000A00020308400003085003A30FE000030FF0030
:1000B0008D3148258031A030840000308500223009
:1000C000FE000030FF008D31482580317E10200079
:1000D00080316A288D31842580318F31C02780316D
:1000E0008D311F2580318D31722580318B170B1793
:1000F0008C31E12480317B30F1000630F2008D310B
:10010000122580318D31612580312000AB1B96286E
:100110002B08031D97282A08031D97282908031D6B
:10012000972801302802031C96289728C128200010
:100130002B08803AE5002F08803A6502031DAA28A3
:100140002E082A02031DAA282D082902031DAA2809
:100150002C0828020318AD28AE28C1280030AF00B3
:100160000030AE000030AD000030AC000030AB001D
:100170000030AA000030A9000030A8008D3197257A
:1001800080312000A31BD2282308031DD328220876
:10019000031DD3282108031DD32801302002031C8E
:1001A000D228D328F12820002308803AE500270828
:1001B000803A6502031DE62826082202031DE62870
:1001C00025082102031DE628240820020318E92837
:1001D000EA28F12808308731E72780318D319725CB
:1001E00080318D3127258031003A0319F828F9280C
:1001F000AB2A00302000AB000030AA000030A9007C
:100200003230A8000030AF000030AE000030AD004A
:100210000030AC008E31D42680312000E500650826
:10022000ED007F2A5208E5006508C60081306D06A2
:10023000031D1B291C291F29D201D20A3F29423044
:100240006D06031D242925292A290230E5006508A9
:10025000D2003F2924306D06031D2F29302935296E
:100260000430E5006508D2003F2918306D06031DF3
:100270003A293B293F290630E5006508D2006D0880
:10028000E5006508C800A12A6D08E5006508D000F2
:100290005208E5006508C6000730E5006508D20091
:1002A000A12A6D08E5006508CF005208E500650841
:1002B000C6000730E5006508D200A12AEF308600AD
:1002C000203087006D08C03F5208E5006508C60071
:1002D0000330E5006508D200A12AF0308600203006
:1002E00087006D0881005208E5006508C6000530EA
:1002F000E5006508D200EF308600203087004131EC
:100300000108031D84298529A12A0730E500650815
:10031000D200A12AEF3086002030870041318030A2
:100320000102031894299529A8294708E500E60148
:10033000F130E7002030E80065086707E90066084B
:10034000683DEA00690886006A0887006D08810038
:100350000130E5006508C707EF30860020308700D0
:10036000413101084706031DB629B729A12AC70153
:100370005208E5006508C60085296D08E500650896
:10038000CE005208E5006508C6004E088038E5003A
:100390006508CE00D2010030AB000030AA0000306A
:1003A000A9000030A800A12A48086D06031DD9291C
:1003B000DA29682A522A48086D060319E029E1293A
:1003C000E62905308731E7278031682A8D31972566
:1003D000803102308731E72780312000D101D10AF6
:1003E000682A48086D060319F629F729FC29053003
:1003F0008731E7278031682A02308731E72780314B
:1004000020004F088038E5006508CF00682AEF30EB
:10041000860020308700413180300102031C112A00
:10042000122A172A04308731E7278031682A4808C2
:100430006D0603191C2A1D2A222A05308731E72759
:100440008031682A02308731E7278031EF3086001B
:1004500020308700EF30840020308500000880388D
:10046000C03F682AEF30860020308700413180305D
:100470000102031C3C2A3D2A422A04308731E72727
:100480008031682A48086D060319472A482A4D2AF0
:1004900005308731E7278031682A02308731E72726
:1004A0008031262A4608E500E6016608003A03196D
:1004B0005A2A682A6508013A0319DB29033A031905
:1004C000F129013A0319322A063A0319072A682A40
:1004D00020005208E5006508C600D2010030AB00DC
:1004E0000030AA000030A9000030A8000030AF00A2
:1004F0000030AE000030AD000030AC00A12A520840
:10050000E500E6016608003A0319872AA12A650872
:10051000003A03191229013A03194429033A03192D
:100520005129013A03196D29073A03195E29013A45
:1005300003198A29033A0319BD29013A0319D42959
:10054000A12A46080319A52AA62AAB2A48086D063F
:10055000E5006508C8002000CE1FAF2AB02AD62AC1
:10056000C82A4D03031DB52AB62ABE2A8C31E124C0
:10057000803103302000E5006508D3008D319725D8
:10058000803120004E087F39E5006508CE00D62A6C
:100590004E087F39E500E6016608003A0319D12AC2
:1005A000D62A6508083A0319B12AD62ACF1FD92AB4
:1005B000DA2A122DF02A4D080319DF2AE02AE52A4B
:1005C00006308731E7278031E92A07308731E7276E
:1005D000803120004E087F39E5006508CF00122DDC
:1005E0004F087F39E500E6016608003A0319F92A49
:1005F000122D6508033A0319DB2A122D0030A300DF
:100600000030A2000030A1000030A000802D35088D
:100610003306031D0D2B340832060319102B112B42
:10062000212B0030A7000030A6000030A5000030CC
:10063000A4000030A3000030A2000330A100E83085
:10064000A0003508B3003408B200FF2C01308F3110
:100650005727803101302000B4070030B53D802D90
:100660000130F1000030F2000230F3000030F400FD
:100670000030F500F600FF30F7000030F8008F3151
:100680002827803172082000B5007108B400802D41
:1006900001308D31F3258031003A0319502B512B55
:1006A000802DF130F2002030F300EF308600203052
:1006B0008700413101082000E5006508F40087311A
:1006C000A7278031003A031D662B672B2A2B2000B9
:1006D0000D186B2B6C2B6D2B2A2B03308731E727E2
:1006E00080318D3197258031802D02308F31572711
:1006F00080312A2B0430F1000030F2000530F30085
:100700000030F4000330F5000030F600FF30F70051
:100710000030F8008F312827803172082000B500A2
:100720007108B400802D02308D31F3258031003AFC
:1007300003199B2B9C2B222DF130F4002030F50067
:10074000EF30860020308700413101082000E500AD
:100750006508F60087316227803101308731E7274D
:100760008031712B08308731E7278031712B3508B4
:10077000003A0319BC2B802D3408003A0319262BAC
:10078000013A0319302B033A0319482B013A031994
:10079000752B073A03197A2B013A0319932BFA3A6E
:1007A0000319B22B802D4D03031DD72BD82BE12B22
:1007B0000330E5006508D30001308731E727803139
:1007C000712B01308F31572780312A2B01308D3129
:1007D000F3258031003A0319EE2BEF2B222DF13057
:1007E000F2002030F300EF308600203087004131E6
:1007F00001082000E5006508F4008731A727803153
:10080000003A031D042C052C0A2C20000D18092C7D
:100810000A2C122C2000D301D30A01308731E7279C
:100820008031712B03308731E7278031712B0830FD
:100830008731E7278031712B3508003A0319212CC5
:10084000222D3408003A0319D32B013A0319302B17
:10085000033A0319E62BFD3A0319172C222D013018
:100860008F31572780312A2B01308D31F32580318C
:10087000003A03193C2C3D2C802DF130F200203041
:10088000F300EF308600203087004131010820005E
:10089000E5006508F4008731A7278031003A031D81
:1008A000522C532C582C20000D18572C582C682CE7
:1008B0002000D30122000C1406308731E727803155
:1008C0002000CD01CD0A09308731E72780312A2B5E
:1008D00003308731E7278031712B0030A3000030CF
:1008E000A2002E30A100E030A000CE1F782C792C81
:1008F0008A2C7F304E05E50009306506031D812CEA
:10090000822C8A2C8C31E124803101302000B40704
:100910000030B53D4E087F39E5006508CE00802DDA
:100920008D3118258031003A0319972C982C222DEF
:100930008C31DE2480312000E5006508CB000930D1
:100940008731E72780312A2BCE1FA72CA82C8A2C91
:100950007F304E05E50009306506031DB02CB12C33
:100960008A2C822C8D3118258031003A0319B92C3C
:10097000BA2C222D8C31DE2480312000E500650860
:10098000CC0001308731E727803120004B08E5009B
:100990006508F4004C088E31892680318D3161253F
:1009A00080312000D301D30A8D319725803120007A
:1009B000CC01CB01802D08308731E7278031D42C42
:1009C0003508003A0319E52C222D3408003A0319A2
:1009D0002F2C013A0319302B033A0319342C013A16
:1009E00003196D2C073A0319902C013A0319A42C12
:1009F000033A0319B22CF93A0319DB2C222D5008C3
:100A0000E500E6016608003A0319072D802D650808
:100A1000013A0319B72B033A03191C2C013A0319A5
:100A2000E02C802D5108E500E6016608003A031924
:100A30001A2D802D6508003A0319FE2A013A031980
:100A4000072B802D802D22000C1406308731E727DC
:100A500080312000CD01CD0A0230E5006508D300C9
:100A60008C31E124803185288D3118258031003A80
:100A700003193B2D3C2D852821001C082000E50092
:100A80006508EB006B08E500E6016508DE00660816
:100A9000DF000130853199258031003A0319512D4D
:100AA000522D302D03302000E5006508D300302D95
:100AB0008D3118258031003A03195F2D602D85286E
:100AC00021001C082000E5006508EC006C08E5002A
:100AD000E6016508DE006608DF00003085319925F3
:100AE0008031003A0319752D762D302D073087316E
:100AF000E72780312000CD01D30122000C10302DDA
:100B000020005308E500E6016608003A0319892D24
:100B100085286508003A03198528013A0319232D11
:100B2000033A0319342D013A0319582D85288031D1
:100B30003A282000E400640803199F2DA02D0D2EF3
:100B40006E086F020318A52DA62DD42D0A30F700CC
:100B50000030F8006F086E02F100F201031CF2038E
:100B60000930F3000030F4008E31482685317208D8
:100B7000FA007108F90087310227853120006F08DB
:100B80007707E00078080318780AE1005F08803AE8
:100B9000E2006108803A6202031DD02D60085E0207
:100BA0000318D32DD42D0B2E20006F086E020318CE
:100BB000DA2DDB2D792E0A30F7000030F8006E08B0
:100BC0006F02F100F201031CF2030930F300003060
:100BD000F4008E31482685317208FA007108F90058
:100BE00087310227853120006F08E0007708600216
:100BF000E10078090318890AE2006208803AE300FC
:100C00005F08803A6302031D072E5E086102031C21
:100C10000A2E0B2E792E01307A2E6F086E020318E1
:100C2000122E132E412E0A30F7000030F8006E0805
:100C30006F02F100F201031CF2030930F3000030EF
:100C4000F4008E31482685317208FA007108F900E7
:100C500087310227853120006E087707E000780889
:100C60000318780AE1005F08803AE2006108803AE0
:100C70006202031D3D2E60085E020318402E412EC5
:100C80000B2E20006E086F020318472E482E792E77
:100C90000A30F7000030F8006F086E02F100F20130
:100CA000031CF2030930F3000030F4008E314826B3
:100CB00085317208FA007108F90087310227853101
:100CC00020006E08E00077086002E1007809031850
:100CD000890AE2006208803AE3005F08803A630212
:100CE000031D742E5E086102031C772E782E792E68
:100CF0000B2E003008002000AB1B8C2E2B08031D90
:100D00008D2E2A08031D8D2E2908031D8D2E0130DE
:100D10002802031C8C2E8D2E962E01302000AC074D
:100D20000030AD3D0030AE3D0030AF3D2000A31B94
:100D3000A72E2308031DA82E2208031DA82E210874
:100D4000031DA82E01302002031CA72EA82EB12EB1
:100D500001302000A4070030A53D0030A63D003042
:100D6000A73D20004A080319B62EB72EC02E013029
:100D70002100B8070030B93D0030BA3D0030BB3D1E
:100D8000031020000D1C0314003003180130C900AB
:100D900049084A060319CD2ECE2EFC2E4A08031907
:100DA000D22ED32EF32E2100BB1BE52E3B08031DB4
:100DB000E42E3A08031DE42E3908031DE42E3230D8
:100DC00038020318E42EE52EF32E20004D080319F7
:100DD000EA2EEB2EF02E0330F0007008D300FC2E2C
:100DE000D301D30AFC2E00302100BB000030BA0032
:100DF0000030B9000030B80020004908F000700849
:100E0000CA0008002000DB01F81F072F082F0F2F52
:100E1000F709F809F70A0319F80ADB01DB0AFA1FD8
:100E2000122F132F1C2FF909FA09F90A0319FA0ACC
:100E30000130FB007B08DB06DC01DD01770878046C
:100E40000319232F242F532FDA01DA0A302F013010
:100E5000F735F80D890B282F0130FB007B08DA07E6
:100E6000F81F332F342F272F0130DC35DD0D890B90
:100E7000352F78087A02031D3F2F77087902031C6B
:100E8000422F432F482F7708F9027808FA3B5C1469
:100E90000130F836F70C890B492F0130DA02031DB7
:100EA000522F532F342F5B080319572F582F5D2FC4
:100EB000DC09DD09DC0A0319DD0A5D08F8005C08BD
:100EC000F700080004308D313C2587317606031980
:100ED0006A2F6B2F732F7608F7007708F100043024
:100EE0008E312A268731F801F901992F7808740785
:100EF00086007908753D87007808053E8D313C25D0
:100F0000873101060319852F862F952F78087407DE
:100F100086007908753D87000108F7007708F10021
:100F20007808053E8E312A2687310130F8070030D7
:100F3000F93D7908803AF70080307702031DA22F2F
:100F400076087802031CA52FA62F762F0800F7013C
:100F5000F70A04308D313C258731F5007508F8001B
:100F6000780874060319B52FB62FB82FF701E52FAF
:100F7000F901FA01D82F7908053E8D313C258731DA
:100F8000F5007508F8007908720786007A08733D45
:100F900087000108F5007508F60078087606031941
:100FA000D22FD32FD42FB62F0130F9070030FA3DBE
:100FB0007A08803AF50080307502031DE12F74082D
:100FC0007902031CE42FE52FBB2F770808002000CF
:100FD000DA00DB01DC011830F9007908DB005A087F
:100FE000F9007908DC005B30F3000030F4000230D7
:100FF000F9007908F5008E31AD2687310800080028
:1019BA00080021001C08080021009D1408008D3130
:1019CA00D9258C31080023001D121D160800163077
:1019DA0021009700080023001E0C01390800720834
:1019EA002000BD007108BC00080072082000C10078
:1019FA007108C000080072082000BF007108BE000C
:101A0A00080072082000C3007108C20008007208AA
:101A1A002000C5007108C400080072082000B9003F
:101A2A007108B8000800031021009D1C031400303F
:101A3A00093D0800103021009E009B019C012530C1
:101A4A009D00080020005508031D2C2D2E2D013065
:101A5A002F2D0030080070302100990098012200D3
:101A6A00960121001A1F3A2D3B2D362D0800F10050
:101A7A007108230091001513951315140000000036
:101A8A002300130808006400800101310130FE02BE
:101A9A000030FF3B7F087E04031D492D00342000DF
:101AAA003808390403195A2D5B2D602D39088A002C
:101ABA0038080A008D31080000308D313C258D31FF
:101ACA00F20072082000EE0001308D313C258D3184
:101ADA00F20072082000EF000800C73020009B00C7
:101AEA009A01911021009114FF30F1000730F200A1
:101AFA008D3112258D314D3020009C0008008D312A
:101B0A00C2258D318D3130258D318C31EC248D31CA
:101B1A008D3172258D318D311F258D318F31C02741
:101B2A008D31080000302000A7000030A6000030E8
:101B3A00A5000030A4000030A3000030A20000304D
:101B4A00A1000030A000B401B501D10108002000B5
:101B5A0091100130B6070030B73D003037020A3025
:101B6A0003193602031CBA2DBB2DC12D8D31542504
:101B7A008D312000B601B701080022008C018D01C9
:101B8A00FE3021008C00FF308D00E83023008D00EC
:101B9A001E308C00013024008D008C012100951329
:101BAA0022009D019E01080023001908F0007C080C
:101BBA00A83E86008701700881000130F000700895
:101BCA00FC0708307C02031CEB2DEC2DED2DFC01EB
:101BDA000130F00070082000D5070800F200EF304D
:101BEA00860020308700811FFB2DFC2D0B2EEF3045
:101BFA008600203087007F300105F10071087206E7
:101C0A00031D082E092E0B2E01300C2E0030080061
:101C1A00F601F7011B2E7608710786007708723DD8
:101C2A00870081010130F6070030F73D7708803AD6
:101C3A00F5007408803A7502031D252E7308760292
:101C4A00031C282E292E102E0800F20072082300E9
:101C5A0091007108930095131513151500308B1B0D
:101C6A000130F3008B1355309600AA309600951474
:101C7A009518402E412E3D2E1511730C031C8B1303
:101C8A0003188B170800F501F601711C4D2E4E2E14
:101C9A00522E7308F5077408F63D0130F335F40D3A
:101CAA00890B532E0130F236F10C890B582E71082C
:101CBA007204031D612E622E4A2E7608F200750800
:101CCA00F100080008302000570203186D2E6E2E0E
:101CDA00862E5808B03E86008701010823009A0024
:101CEA000130F00070082000D80708305802031CA1
:101CFA007F2E802E812ED8010130F0007008D70780
:101D0A00882E210011120800F60000308D313C2582
:101D1A008E3176060319922E932E9B2E7608F500A5
:101D2A007508F10000308E312A268E3101308D314E
:101D3A003C258E3174060319A32EA42EAC2E7408EA
:101D4A00F5007508F10001308E312A268E3108001F
:101D5A00F701F801C62E8C31F0248E31003A0319AE
:101D6A00B72EB82EB02E7708730786007808743D10
:101D7A00870001088E31FE268E310130F7070030C8
:101D8A00F83D7808803AF60080307602031DCF2E9F
:101D9A0075087702031CD22ED32EB02E080020001D
:101DAA0055080319D92EDA2ED42E5608A03E8600DD
:101DBA0087010108F1007108D4005608A83E860080
:101DCA0087010108F1007108F2000130F100710881
:101DDA00D60708305602031CF32EF42EF52ED60130
:101DEA002100911201302000D502210091167208BB
:101DFA000800F200200057080319042F052FFF2EB0
:101E0A002100111A092F0A2F0E2F720823009A0097
:101E1A00252F11127208F10020005908B03E8600E1
:101E2A008701710881000130F1007108D907083073
:101E3A005902031C212F222F232FD9010130D70247
:101E4A002100111608002000CE1F2C2F2D2F562FEF
:101E5A003D2F7408F2007308F100562F7808F2003B
:101E6A007708F100562F7608F2007508F100562F10
:101E7A004E087F39F900FA017A08003A0319462F09
:101E8A00512F7908023A03192E2F063A0319332FD4
:101E9A00013A0319382F512F4E087F39F900790872
:101EAA00CE0008002000DA00EF30F1002030F20006
:101EBA008130F3000030F4008E310D268F3100306E
:101ECA002000DB000030DC000030DD004230F90089
:101EDA007908DB005A08F9007908DC00DD015C08A2
:101EEA005B06F9007908DD005B30F3000030F4008E
:101EFA000330F9007908F5008E31AD268F312000C4
:101F0A00CE0108007C08A03E8600870181012300DB
:101F1A001D1D902F912F9C2F7C08A03E86008701C3
:101F2A008114200041088A0040080A008F312300EA
:101F3A009D1CA02FA12FAC2F7C08A03E86008701F4
:101F4A00011520003F088A003E080A008F317C08EC
:101F5A00A03E8600870101080319B42FB52FBC2FB4
:101F6A0020003D088A003C080A008F31BF2F8D31BE
:101F7A00D9258F310800210091128730F1000F30E6
:101F8A00F2008D3106258F31210011126730F100E0
:101F9A000E30F2008D310C258F31083023009F005E
:101FAA0090309D0024309E0040309B0003309C00FE
:101FBA00DD30F1000C30F2008C31FA248F31E83038
:101FCA00F1000C30F2008D3100258F31E430F10040
:101FDA000C30F2008C31F4248F312000D401D90165
:101FEA00D8010830F3007308D700FC01D601D501E7
:061FFA0021009116080011
:020000040001F9
:08000000FF3FFF3FFF3FFF3F00
:04000E00E43FFF1FAD
:00000001FF
